:100000000C9446000C9465000C9465000C946500FB
:100010000C9465000C9465000C9465000C946500CC
:100020000C9465000C9465000C9465000C946500BC
:100030000C9423010C9465000C9465000C946500ED
:100040000C94E0000C9465000C9465000C94650021
:100050000C9465000C94B0020C9465000C9465003F
:100060000C9465000C9465000C9465000C9465007C
:100070000C9465000C9465000C9465000C9465006C
:100080000C9465000C9465000C94650011241FBE4F
:10009000CFEFD0E1DEBFCDBF11E0A0E0B1E0E6E9F7
:1000A000F1E100E00BBF02C007900D92AA31B10749
:1000B000D9F721E0AAE1B1E001C01D92A237B20751
:1000C000E1F70E942C070C94C9080C9400001ABA9E
:1000D00087B3806F87BB000000008FEF8BBB88B3B6
:1000E000806F88BB0895E1E6F0E0808188608083BE
:1000F00000000000E2E6F0E08081877F808387B324
:10010000876087BBBB980000000080E58DB981E067
:100110008EB980EC82B90000000083B1806C83B995
:1001200008951E9A8FEB83B91E9A83B1807483B9A8
:100130001FB8779BFECF1F9A8FB190E008958FB9BB
:10014000779BFECFC09AC098089580912401803893
:1001500071F18F3741F18F33C9F08F5F9091280192
:100160009C3338F0909127019F5F90932701109264
:100170002801909127019C3371F0909126019831CC
:1001800011F41092260180932401089581E0809358
:10019000230180E4E3CF909126019F5F9093260195
:1001A00010922701EACF1092230180E8D7CF8091E7
:1001B00028018F5F809328011092240181E0CECF27
:1001C0001F920F920FB60F9211240BB60F922F931E
:1001D0003F934F935F936F937F938F939F93AF93CF
:1001E000BF93EF93FF930E94A50080911E01882387
:1001F00049F080911B0190911C01019690931C0184
:1002000080931B01FF91EF91BF91AF919F918F91CF
:100210007F916F915F914F913F912F910F900BBE06
:100220000F900FBE0F901F90189580B7886080BF09
:1002300012BE81E083BF00B602FCFDCF87B78160AC
:1002400087BF789408951F920F920FB60F921124D2
:100250000BB60F922F933F934F935F936F937F93C0
:100260008F939F93AF93BF93EF93FF9380911F0161
:100270008823F9F092B384E0892782BB80911D0125
:10028000882371F180911F01882309F1FF91EF917B
:10029000BF91AF919F918F917F916F915F914F919E
:1002A0003F912F910F900BBE0F900FBE0F901F909C
:1002B000189580911B0190911C0181159540E1F0EA
:1002C00080911D01811103C082B312BADFCF109259
:1002D0001D010E94F80480911F018823A9F3D6CF45
:1002E00082E191E00E94320581E080931D018091BE
:1002F0001F018111CBCFEBCF10921E0181E08093C3
:100300001F0110921C0110921B010E94F804109210
:100310001D0180911F01E1CF1FBC8BE08EBD1092AB
:100320007A0089E692E09BBD8ABD87B7806187BF6E
:100330008A9A82B382BB08958FEF8ABB87B3806F9E
:1003400087BB0000000088B3806688BB88B38F76C7
:1003500088BB089582309105B9F03CF4009791F084
:10036000019761F480E188BB08958330910539F0ED
:10037000049719F480E488BB08950895089580E3F4
:1003800088BB089518BA089580E288BB0895CF937A
:10039000DF9380912101882309F484C0C0910D016D
:1003A000A09125018DECC89FE12D1124E695E695DD
:1003B000E6952AE0E29FC0191124D0E0CF5FDE4F1E
:1003C000988190933D01E89F912D112496959695E3
:1003D00096952AE0929FE0191124F0E0EF5FFE4F1E
:1003E000908190933E01A89FE12D1124E695E6951A
:1003F000E6959AE0E99FA0191124B0E0AF5FBE4FE7
:100400009C9190933F01E89F812D112486958695BC
:1004100086952AE0829FE0191124F0E0EF5FFE4FFD
:100420008081809340018CEF8093410118BA8091C4
:100430003D018BBB8FE99FE00197F1F700C0000001
:1004400080E188BB80913E018BBB8FE99FE00197E3
:10045000F1F700C0000080912201882341F180E281
:1004600088BB8CEF8BBB8FE99FE00197F1F700C051
:10047000000080E388BB80913F018BBB8FE99FE048
:100480000197F1F700C0000080E488BB8091400133
:100490008BBB8FE99FE00197F1F700C00000DF916F
:1004A000CF910895C0912701A09126017BCF809123
:1004B00021018111D4CF80E288BB80912301811179
:1004C00008C080912001882369F08BEF8BBB80915D
:1004D0002301813041F680912001882311F288EFB9
:1004E0008BBBC1CF8FEF8BBB80912301F2CF89E60D
:1004F00085BD80E883BDBF9A0895139A8FEF91E080
:10050000909387008093860083EC80938B0089E032
:1005100080938A0008952FEF33E0AC01429FC00121
:10052000439F900D529F900D11246CE97FEF0E9424
:10053000740861507C4F7093870060938600089523
:10054000E1E6F0E080818F778083E2E6F0E0808171
:100550008F77808387E487B986B18F6886B90895DD
:100560001F920F920FB60F9211242F933F935F9318
:100570006F937F938F939F93AF93BF9384B195B104
:1005800090933C0180933B019C01220F331F220F6B
:10059000331F820F931F6FEF73E00E946008623079
:1005A000710551F1BCF46115710519F161307105E6
:1005B000D1F48CEC83BD369ABF91AF919F918F910E
:1005C0007F916F915F913F912F910F900FBE0F9090
:1005D0001F9018956330710549F06430710519F466
:1005E00083E383BDE8CF80E883BDE5CF86E683BDA6
:1005F000E2CF8AE183BDDFCF8AE983BDDCCFE82F7C
:10060000F0E029B3EE0FFF1FE65DFE4F4081518100
:10061000440F551F506E30E0B90102C075956795C3
:100620008A95E2F7CB0181709927842B952B9183D2
:1006300080838115904F49F08FE99FE00197F1F792
:1006400000C0000080E090E0089581E090E008950F
:10065000482F41709C01359527952170809111019B
:10066000813031F04093110120931001862F0895BD
:1006700080911001442359F08130A1F72111F2CF6C
:1006800082E0809329016A3360F46F5FEBCF8130A1
:1006900049F7213039F720932901662321F0615071
:1006A000E1CF60E0DFCF6BE3DDCF9C01359527958F
:1006B00035952795522F51709C0135952795359585
:1006C000279535952795217080910F01813031F064
:1006D00050930F0120930E01862F089580910E01F3
:1006E000552399F08130A1F72111F2CF82E0809358
:1006F00029016417A0F4E62FF0E03196842F90E0F2
:10070000E817F90764F46F5FE3CF813009F7213010
:10071000F9F620932901662321F06150D9CF60E0DA
:10072000D7CF642FD5CFCF93DF9300D0CDB7DEB72F
:1007300013BE80911A01811122C08FEF8FB9779B70
:10074000FECFC09AC09847E1609127014A83698330
:100750000E94910069810E94280380932701609183
:10076000260169830E9491004A8169810E94550394
:10077000809326010F900F90DF91CF9108958FE025
:100780008FB9779BFECFC09AC098809126018C309C
:1007900038F0809126018C50809326014CE0D4CF14
:1007A0004CE0D2CFCF93DF931F92CDB7DEB76091ED
:1007B0000D0169830E94910069810E942803809342
:1007C0000D016091250169830E94910047E16981D3
:1007D0000E9455038093250181E0809320010F90B2
:1007E000DF91CF9108959091260180912501981372
:1007F000089580911E018111FBCF809120018823F3
:10080000B9F39091270180910D019813F1CF81E008
:1008100080931F01089591E0811101C090E09FB97C
:10082000779BFECF6FB9779BFECF80916200886087
:100830008093620080916200877F809362000895B8
:10084000CF93C0913A018C0F911DFC01608181E032
:100850000E940B0481E08C0F80933A018031A1F05B
:10086000803211F0CF910895E5EDEA95F1F700009F
:1008700060E880E00E940B04F5EDFA95F1F70000C6
:1008800010923A01CF910895F5EDFA95F1F7000035
:1008900060EC80E00E940B0485ED8A95F1F7000082
:1008A00080913A01DDCFEF92FF920F931F93CF9388
:1008B000DF931F92CDB7DEB7182F660F660F660F56
:1008C000605C80E099830E940B0485ED8A95F1F7C6
:1008D0000000E12E9981F92E8701085F1F4FF70173
:1008E00061917F0181E00E940B04F5EDFA95F1F72B
:1008F0000000E016F10699F70F90DF91CF911F915C
:100900000F91FF90EF90089590E4899F600D11245E
:10091000605C80E00C940B04CF938823B9F1C82F5E
:10092000843698F48A30D8F48DECC89F812D112438
:100930008695869586956C2F2AE0829F60191124F2
:10094000605D81E0CF910C940B0469E2869F612D7C
:10095000112462956F70605D81E00E940B0489E252
:10096000C89F812D112482958F709C2F24E6829F31
:10097000901911246DEC969F612D11246695669552
:100980006695605D81E00E940B04CECF60E381E05C
:10099000CF910C940B04CF9387FD03C0CF910C949F
:1009A0008C04C82F6DE281E00E940B0485ED8A95CE
:1009B000F1F700008C2F8195CF910C948C046EE0A0
:1009C00080E00C940B046CE080E00C940B046EE16E
:1009D00080E00C940B0468E180E00C940B04E2E6E8
:1009E000F0E08081886080838081877F80830895A4
:1009F00061E080E00E940B048FE19CE10197F1F738
:100A000000C00000089562E080E00E940B048FE6C1
:100A100097E10197F1F700C00000089560EC80E0D5
:100A20000E940B0485ED8A95F1F70000089560E8B7
:100A300080E00E940B0485ED8A95F1F7000008958F
:100A4000CF93C0E160E281E00E940B0485ED8A95BE
:100A5000F1F70000C150B1F7CF910895682F81E000
:100A60000C940B040F931F93CF938C0140E050E044
:100A7000C0E0F801E40FF51F608181E00E940B04E3
:100A800085ED8A95F1F70000CF5F4C2F50E0F8011B
:100A900001900020E9F79F01201B310B2250310902
:100AA0002417350730F7CF911F910F9108958FEFDD
:100AB00099EF0197F1F700C0000088E08093610092
:100AC00060E380E00E940B048FE59DE60197F1F75B
:100AD00000C0000060E380E00E940B048FE59DE60B
:100AE0000197F1F700C0000060E380E00E940B0472
:100AF0008FE59DE60197F1F700C0000068E380E014
:100B00000E940B048FE19EE40197F1F700C0000002
:100B100068E080E00E940B048FE19EE40197F1F70A
:100B200000C0000061E080E00E940B048FE19EE4C1
:100B30000197F1F700C0000066E080E00E940B041E
:100B40008FE19EE40197F1F700C000006CE080E0C7
:100B50000E940B048FE19EE40197F1F700C00000B2
:100B600008958F929F92AF92BF92CF92DF92EF92B1
:100B7000FF920F931F93CF93DF93CDB7DEB76997A3
:100B80000FB6F894DEBF0FBECDBFF42E122F002398
:100B900059F04B015C018824B7FC83949924AA2462
:100BA000BB24082D97FD8FC0112309F484C09E013A
:100BB0002F5F3F4F6901590188248A94810E912C3F
:100BC0003FEF831A930A8C0C9D1C2AE030E040E032
:100BD00050E00E948808E62F2A8B3B8B4C8B5D8B64
:100BE0006A897B898C899D8920E32E0FF5012193E9
:100BF0005F01E815F90549F7BB24B394B10EF6017E
:100C0000E10FF11D2EE220832AE030E040E050E0C9
:100C10000E948808E62F2A8B3B8B4C8B5D8B6E8B5A
:100C20007F8B888F998F6A897B898C899D8911E058
:100C30001B0DD601AB0DB11DE05DEC93B12E61151E
:100C400071058105910501F7FF2061F0E11039C0C0
:100C500080E21F1538F4F601E10FF11D80831F5F5C
:100C60001F11F9CF002331F0F601E10FF11D8DE2E4
:100C700080831F5F1150F601E10FF11D608181E05B
:100C80000E940B0435ED3A95F1F700001111F2CFF7
:100C900069960FB6F894DEBF0FBECDBFDF91CF913E
:100CA0001F910F91FF90EF90DF90CF90BF90AF908A
:100CB0009F908F900895B12C9E012F5F3F4F690147
:100CC000A3CF80E3C6CF90958095709561957F4FB7
:100CD0008F4F9F4F69CF5F926F927F928F929F92BB
:100CE000AF92BF92CF92DF92EF92FF920F931F933A
:100CF000CF93DF93CDB7DEB761970FB6F894DEBF21
:100D00000FBECDBF662E142F592E551C5524551CD1
:100D1000752CA52CB12C222733272A193B098227B1
:100D200093279C012A0D3B1D442309F490C0CE015A
:100D300001967C016C0188248A94840E912C9FEF8B
:100D4000891A990A8E0C9F1C6AE070E0C9010E9402
:100D50007408462F242F372F805DF60181936F0191
:100D6000E815F90589F7DD24D394D10EF701E10FD9
:100D7000F11D8EE280836AE070E0C9010E94740870
:100D8000462F242F372F11E01D0DF701ED0DF11D1A
:100D9000805D8083D12E2115310569F7011115C0C1
:100DA000552039F011E01D0DF701ED0DF11D8DE21B
:100DB0008083662041F1812F90E0262D30E082175C
:100DC00093070CF5712C40E20CC06620A1F0812F36
:100DD00090E0262D30E02A193B09821793075CF436
:100DE00040E31F5FF701E80FF91F4083812F90E078
:100DF00082179307B4F3772031F0F701E10FF11D6B
:100E00008DE280831F5F1150F701E10FF11D6081BA
:100E100081E00E940B0495ED9A95F1F70000111105
:100E2000F2CF61960FB6F894DEBF0FBECDBFDF9153
:100E3000CF911F910F91FF90EF90DF90CF90BF90D7
:100E4000AF909F908F907F906F905F900895D12C7E
:100E5000CE0101967C018FCF0E94730089E685BD8B
:100E600080E883BDBF9A0E9415011FBC8BE08EBD38
:100E700010927A0089E692E09BBD8ABD87B78061B7
:100E800087BF8A9A82B382BB139A8FEF91E09093C7
:100E900087008093860083EC80938B0089E08093A9
:100EA0008A000E9457050E94F8041FB8779BFECF66
:100EB000C09AC09885EF94E0909387008093860055
:100EC000809161008F7780936100809162008F77BD
:100ED0008093620087E487B986B18F6886B9369AB5
:100EE00077247A949924939488248A94662463942A
:100EF0007AC08FE99FE00197F1F700C0000029B3A5
:100F000080912C0190912D01880F991F906E21FBEB
:100F1000002700F910E0802B912B90932D018093F6
:100F20002C018115904F09F4A3C08FE99FE0019730
:100F3000F1F700C00000809120018111A3C029B306
:100F400080912E0190912F01880F991F906E22FBA6
:100F5000EE24E0F8F12C8E299F2990932F018093A5
:100F60002E018115904F09F490C08FE99FE0019701
:100F7000F1F700C0000029B3809130019091310158
:100F8000880F991F906E23FBCC24C0F8D12C8C299C
:100F90009D2990933101809330018115904F09F480
:100FA00060C08FE99FE00197F1F700C0000029B30E
:100FB0008091320190913301880F991F906E24FB2C
:100FC000AA24A0F8B12C8A299B29909333018093FD
:100FD00032018115904F09F46DC08FE99FE00197B0
:100FE000F1F700C000008ABA87B3806F87BB0000AA
:100FF000000088B3806688BB88B38F7688BB0E9468
:10100000C7011ABA87B3806F87BB000000007BBAA4
:1010100088B3806F88BB8091220181113DC080918F
:10102000210181113FC029B380912A0190912B01A8
:10103000880F991F906E2170C22F20E0D22F8C2B29
:101040009D2B90932B0180932A018115904F09F0DD
:1010500050CF80912201811128C0892580932201DF
:101060004ECF60921E0110921F010E94F8049FCF84
:10107000809121018925809321018091200188237D
:1010800009F45DCF0E94F3035ACF10922001109211
:101090001F010E94F8046FCF0E94930380912101E9
:1010A000882309F20E94D203BECF0E9415018091CD
:1010B0002201D3CF80911A01892580931A0193CF01
:1010C000AA1BBB1B51E107C0AA1FBB1FA617B7076E
:1010D00010F0A61BB70B881F991F5A95A9F780958A
:1010E0009095BC01CD01089597FB072E16F400944E
:1010F00007D077FD09D00E94600807FC05D03EF4B8
:10110000909581959F4F0895709561957F4F0895B3
:10111000052E97FB1EF400940E949F0857FD07D0F0
:101120000E94A70807FC03D04EF40C949F0850952A
:101130004095309521953F4F4F4F5F4F08959095C3
:101140008095709561957F4F8F4F9F4F0895A1E2D5
:101150001A2EAA1BBB1BFD010DC0AA1FBB1FEE1F31
:10116000FF1FA217B307E407F50720F0A21BB30B7C
:10117000E40BF50B661F771F881F991F1A9469F7F8
:1011800060957095809590959B01AC01BD01CF0154
:061190000895F894FFCF62
:1011960001C0F9A4B0999282F88090000001010183
:0A11A6000101416C61726D2100002F
:00000001FF
