S0100000746573745F6164632E73726563CD
S11300000C9446000C9465000C9465000C946500F7
S11300100C9465000C9465000C9465000C946500C8
S11300200C9465000C9465000C9465000C946500B8
S11300300C9423010C9465000C9465000C946500E9
S11300400C94E0000C9465000C9465000C9465001D
S11300500C9465000C94B0020C9465000C9465003B
S11300600C9465000C9465000C9465000C94650078
S11300700C9465000C9465000C9465000C94650068
S11300800C9465000C9465000C94650011241FBE4B
S1130090CFEFD0E1DEBFCDBF11E0A0E0B1E0ECE0F6
S11300A0F1E100E00BBF02C007900D92A831B10747
S11300B0D9F721E0A8E1B1E001C01D92AF36B20743
S11300C0E1F70E940C070C9484080C9400001ABAFF
S11300D087B3806F87BB000000008FEF8BBB88B3B2
S11300E0806F88BB0895E1E6F0E0808188608083BA
S11300F000000000E2E6F0E08081877F808387B320
S1130100876087BBBB980000000080E58DB981E063
S11301108EB980EC82B90000000083B1806C83B991
S113012008951E9A8FEB83B91E9A83B1807483B9A4
S11301301FB8779BFECF1F9A8FB190E008958FB9B7
S1130140779BFECFC09AC098089580912101803892
S113015071F18F3741F18F33C9F08F5F9091250191
S11301609C3338F0909124019F5F90932401109266
S11301702501909124019C3371F0909123019831D1
S113018011F41092230180932101089581E080935A
S1130190200180E4E3CF909123019F5F909323019A
S11301A010922401EACF1092200180E8D7CF8091E9
S11301B025018F5F809325011092210181E0CECF2C
S11301C01F920F920FB60F9211240BB60F922F931A
S11301D03F934F935F936F937F938F939F93AF93CB
S11301E0BF93EF93FF930E94A50080911B01882386
S11301F049F0809118019091190101969093190189
S113020080931801FF91EF91BF91AF919F918F91CE
S11302107F916F915F914F913F912F910F900BBE02
S11302200F900FBE0F901F90189580B7886080BF05
S113023012BE81E083BF00B602FCFDCF87B78160A8
S113024087BF789408951F920F920FB60F921124CE
S11302500BB60F922F933F934F935F936F937F93BC
S11302608F939F93AF93BF93EF93FF9380911C0160
S11302708823F9F092B384E0892782BB80911A0124
S1130280882371F180911C01882309F1FF91EF917A
S1130290BF91AF919F918F917F916F915F914F919A
S11302A03F912F910F900BBE0F900FBE0F901F9098
S11302B01895809118019091190181159540E1F0EC
S11302C080911A01811103C082B312BADFCF109258
S11302D01A010E94D80480911C018823A9F3D6CF67
S11302E081E191E00E94120581E080931A018091DE
S11302F01C018111CBCFEBCF10921B0181E08093C5
S11303001C0110921901109218010E94D804109235
S11303101A0180911C01E1CF1FBC8BE08EBD1092AD
S11303207A0089E692E09BBD8ABD87B7806187BF6A
S11303308A9A82B382BB08958FEF8ABB87B3806F9A
S113034087BB0000000088B3806688BB88B38F76C3
S113035088BB089582309105B9F03CF4009791F080
S1130360019761F480E188BB08958330910539F0E9
S1130370049719F480E488BB08950895089580E3F0
S113038088BB089518BA089580E288BB0895CF9376
S1130390DF9380911E01882309F484C0C0910C016D
S11303A0A09122018DECC89FE12D1124E695E695DC
S11303B0E6952AE0E29FC0191124D0E0C050DF4F37
S11303C0988190933A01E89F912D112496959695E2
S11303D096952AE0929FE0191124F0E0E050FF4F37
S11303E0908190933B01A89FE12D1124E695E69519
S11303F0E6959AE0E99FA0191124B0E0A050BF4F00
S11304009C9190933C01E89F812D112486958695BB
S113041086952AE0829FE0191124F0E0E050FF4F16
S1130420808180933D018CEF80933E0118BA8091C6
S11304303A018BBB8FE99FE00197F1F700C0000000
S113044080E188BB80913B018BBB8FE99FE00197E2
S1130450F1F700C0000080911F01882341F180E280
S113046088BB8CEF8BBB8FE99FE00197F1F700C04D
S1130470000080E388BB80913C018BBB8FE99FE047
S11304800197F1F700C0000080E488BB80913D0132
S11304908BBB8FE99FE00197F1F700C00000DF916B
S11304A0CF910895C0912401A09123017BCF809125
S11304B01E018111D4CF80E288BB8091200181117B
S11304C008C080911D01882369F08BEF8BBB80915C
S11304D02001813041F680911D01882311F288EFBB
S11304E08BBBC1CF8FEF8BBB80912001F2CF89E60C
S11304F085BD80E883BDBF9A0895139A8FEF91E07C
S1130500909387008093860083EC80938B0089E02E
S113051080938A0008952FEF33E0AC01429FC0011D
S1130520439F900D529F900D11246CE97FEF0E9420
S11305302F0861507C4F7093870060938600089564
S1130540E1E6F0E080818F778083E2E6F0E080816D
S11305508F77808387E487B986B18F6886B90895D9
S11305601F920F920FB60F9211242F933F935F9314
S11305706F937F938F939F93AF93BF9384B195B100
S113058090933901809338019C01220F331F220F6D
S1130590331F820F931F6FEF73E00E941B086230BA
S11305A0710551F1BCF46115710519F161307105E2
S11305B0D1F48CEC83BD369ABF91AF919F918F910A
S11305C07F916F915F913F912F910F900FBE0F908C
S11305D01F9018956330710549F06430710519F462
S11305E083E383BDE8CF80E883BDE5CF86E683BDA2
S11305F0E2CF8AE183BDDFCF8AE983BDDCCFE82F78
S1130600F0E029B3EE0FFF1FE95DFE4F40815181F9
S1130610440F551F506E30E0B90102C075956795BF
S11306208A95E2F7CB0181709927842B952B9183CE
S113063080838115904F49F08FE99FE00197F1F78E
S113064000C0000080E090E0089581E090E008950B
S1130650482F41709C013595279521708091100198
S1130660813031F04093100120930F01862F0895BB
S113067080910F01442359F08130A1F72111F2CF69
S113068082E0809326016A3360F46F5FEBCF8130A0
S113069049F7213039F720932601662321F0615070
S11306A0E1CF60E0DFCF6BE3DDCF9C01359527958B
S11306B035952795522F51709C0135952795359581
S11306C0279535952795217080910E01813031F061
S11306D050930E0120930D01862F089580910D01F2
S11306E0552399F08130A1F72111F2CF82E0809354
S11306F026016417A0F4E62FF0E03196842F90E0F1
S1130700E817F90764F46F5FE3CF813009F721300C
S1130710F9F620932601662321F06150D9CF60E0D9
S1130720D7CF642FD5CFCF93DF931F92CDB7DEB74A
S113073013BE6091240169830E94910069810E9423
S11307402803809324016091230169830E9491000E
S113075047E169810E945503809323010F90DF9143
S1130760CF910895CF93DF931F92CDB7DEB76091F9
S11307700C0169830E94910069810E94280380937F
S11307800C016091220169830E94910047E1698113
S11307900E9455038093220181E080931D010F90F4
S11307A0DF91CF91089590912301809122019813B4
S11307B0089580911B018111FBCF80911D01882335
S11307C0B9F39091240180910C019813F1CF81E049
S11307D080931C01089591E0811101C090E09FB9BC
S11307E0779BFECF6FB9779BFECF809162008860C4
S11307F08093620080916200877F809362000895F5
S1130800CF93C09137018C0F911DFC01608181E071
S11308100E94EB0381E08C0F809337018031A1F0BB
S1130820803211F0CF910895E5EDEA95F1F70000DB
S113083060E880E00E94EB03F5EDFA95F1F7000023
S113084010923701CF910895F5EDFA95F1F7000074
S113085060EC80E00E94EB0385ED8A95F1F70000DF
S113086080913701DDCFEF92FF920F931F93CF93C7
S1130870DF931F92CDB7DEB7182F660F660F660F92
S1130880605C80E099830E94EB0385ED8A95F1F723
S11308900000E12E9981F92E8701085F1F4FF701AF
S11308A061917F0181E00E94EB03F5EDFA95F1F788
S11308B00000E016F10699F70F90DF91CF911F9198
S11308C00F91FF90EF90089590E4899F600D11249B
S11308D0605C80E00C94EB03CF938823B9F1C82FBC
S11308E0843698F48A30D8F48DECC89F812D112475
S11308F08695869586956C2F2AE0829F601911242F
S1130900605D81E0CF910C94EB0369E2869F612DD9
S1130910112462956F70605D81E00E94EB0389E2AF
S1130920C89F812D112482958F709C2F24E6829F6D
S1130930901911246DEC969F612D1124669566958E
S11309406695605D81E00E94EB03CECF60E381E0B9
S1130950CF910C94EB03CF9387FD03C0CF910C94FC
S11309606C04C82F6DE281E00E94EB0385ED8A954B
S1130970F1F700008C2F8195CF910C946C046EE0FC
S113098080E00C94EB036CE080E00C94EB036EE1EC
S113099080E00C94EB0368E180E00C94EB03E2E666
S11309A0F0E08081886080838081877F80830895E0
S11309B061E080E00E94EB038FE19CE10197F1F795
S11309C000C00000089562E080E00E94EB038FE61F
S11309D097E10197F1F700C00000089560EC80E012
S11309E00E94EB0385ED8A95F1F70000089560E815
S11309F080E00E94EB0385ED8A95F1F700000895ED
S1130A00CF93C0E160E281E00E94EB0385ED8A951B
S1130A10F1F70000C150B1F7CF910895682F81E03C
S1130A200C94EB030F931F93CF938C0140E050E0A1
S1130A30C0E0F801E40FF51F608181E00E94EB0340
S1130A4085ED8A95F1F70000CF5F4C2F50E0F80157
S1130A5001900020E9F79F01201B310B225031093E
S1130A602417350730F7CF911F910F9108958FEF19
S1130A7099EF0197F1F700C0000088E080936100CE
S1130A8060E380E00E94EB038FE59DE60197F1F7B8
S1130A9000C0000060E380E00E94EB038FE59DE668
S1130AA00197F1F700C0000060E380E00E94EB03CF
S1130AB08FE59DE60197F1F700C0000068E380E050
S1130AC00E94EB038FE19EE40197F1F700C0000060
S1130AD068E080E00E94EB038FE19EE40197F1F768
S1130AE000C0000061E080E00E94EB038FE19EE41F
S1130AF00197F1F700C0000066E080E00E94EB037C
S1130B008FE19EE40197F1F700C000006CE080E003
S1130B100E94EB038FE19EE40197F1F700C000000F
S1130B2008958F929F92AF92BF92CF92DF92EF92ED
S1130B30FF920F931F93CF93DF93CDB7DEB76997DF
S1130B400FB6F894DEBF0FBECDBFF42E122F0023D4
S1130B5059F04B015C018824B7FC83949924AA249E
S1130B60BB24082D97FD8FC0112309F484C09E0176
S1130B702F5F3F4F6901590188248A94810E912C7B
S1130B803FEF831A930A8C0C9D1C2AE030E040E06E
S1130B9050E00E944308E62F2A8B3B8B4C8B5D8BE5
S1130BA06A897B898C899D8920E32E0FF501219325
S1130BB05F01E815F90549F7BB24B394B10EF601BA
S1130BC0E10FF11D2EE220832AE030E040E050E006
S1130BD00E944308E62F2A8B3B8B4C8B5D8B6E8BDC
S1130BE07F8B888F998F6A897B898C899D8911E095
S1130BF01B0DD601AB0DB11DE05DEC93B12E61155B
S1130C0071058105910501F7FF2061F0E11039C0FC
S1130C1080E21F1538F4F601E10FF11D80831F5F98
S1130C201F11F9CF002331F0F601E10FF11D8DE220
S1130C3080831F5F1150F601E10FF11D608181E097
S1130C400E94EB0335ED3A95F1F700001111F2CF54
S1130C5069960FB6F894DEBF0FBECDBFDF91CF917A
S1130C601F910F91FF90EF90DF90CF90BF90AF90C6
S1130C709F908F900895B12C9E012F5F3F4F690183
S1130C80A3CF80E3C6CF90958095709561957F4FF3
S1130C908F4F9F4F69CF5F926F927F928F929F92F7
S1130CA0AF92BF92CF92DF92EF92FF920F931F9376
S1130CB0CF93DF93CDB7DEB761970FB6F894DEBF5D
S1130CC00FBECDBF662E142F592E551C5524551C0E
S1130CD0752CA52CB12C222733272A193B098227EE
S1130CE093279C012A0D3B1D442309F490C0CE0197
S1130CF001967C016C0188248A94840E912C9FEFC8
S1130D00891A990A8E0C9F1C6AE070E0C9010E943E
S1130D102F08462F242F372F805DF60181936F0112
S1130D20E815F90589F7DD24D394D10EF701E10F15
S1130D30F11D8EE280836AE070E0C9010E942F08F1
S1130D40462F242F372F11E01D0DF701ED0DF11D56
S1130D50805D8083D12E2115310569F7011115C0FD
S1130D60552039F011E01D0DF701ED0DF11D8DE257
S1130D708083662041F1812F90E0262D30E0821798
S1130D8093070CF5712C40E20CC06620A1F0812F72
S1130D9090E0262D30E02A193B09821793075CF472
S1130DA040E31F5FF701E80FF91F4083812F90E0B4
S1130DB082179307B4F3772031F0F701E10FF11DA7
S1130DC08DE280831F5F1150F701E10FF11D6081F7
S1130DD081E00E94EB0395ED9A95F1F70000111163
S1130DE0F2CF61960FB6F894DEBF0FBECDBFDF9190
S1130DF0CF911F910F91FF90EF90DF90CF90BF9014
S1130E00AF909F908F907F906F905F900895D12CBA
S1130E10CE0101967C018FCF0E94730089E685BDC7
S1130E2080E883BDBF9A0E9415011FBC8BE08EBD74
S1130E3010927A0089E692E09BBD8ABD87B78061F3
S1130E4087BF8A9A82B382BB139A8FEF91E0909303
S1130E5087008093860083EC80938B0089E08093E5
S1130E608A000E9437050E94D8041FB8779BFECFE2
S1130E70C09AC09885EF94E0909387008093860091
S1130E80809161008F7780936100809162008F77F9
S1130E908093620087E487B986B18F6886B9369AF1
S1130EA0AA24AA9499249394BB24BA94882483945E
S1130EB05EC08FE99FE00197F1F700C0000029B3FD
S1130EC08091290190912A01880F991F906E21FB2E
S1130ED0002700F910E0802B912B90932A01809336
S1130EE029018115904F09F487C08FE99FE001978C
S1130EF0F1F700C0000080911D01811187C029B362
S1130F0080912B0190912C01880F991F906E22FBE8
S1130F10EE24E0F8F12C8E299F2990932C018093E4
S1130F202B018115904F09F460C08FE99FE0019770
S1130F30F1F700C0000029B380912D0190912E019A
S1130F40880F991F906E23FBCC24C0F8D12C8C29D8
S1130F509D2990932E0180932D018115904F09F4C2
S1130F6063C08FE99FE00197F1F700C00000BABAAF
S1130F7087B3806F87BB0000000088B3806688BB9E
S1130F8088B38F7688BB0E94C7011ABA87B3806F73
S1130F9087BB00000000ABBA88B3806F88BB809128
S1130FA01F01811139C080911E01811132C029B302
S1130FB08091270190912801880F991F906E2170CC
S1130FC0C22F20E0D22F8C2B9D2B9093280180934D
S1130FD027018115904F09F06CCF80911F01811179
S1130FE01EC0892580931F016ACF10921D011092A3
S1130FF01C010E94D8049FCF80911E0189258093F3
S11310001E0180911D01882309F479CF0E94D30326
S113101076CF0E94B203CBCF0E949303C4CF0E9429
S1131020150180911F01DDCF80921B0110921C01DC
S11310300E94D8049CCFAA1BBB1B51E107C0AA1F66
S1131040BB1FA617B70710F0A61BB70B881F991F65
S11310505A95A9F780959095BC01CD01089597FB09
S1131060072E16F4009407D077FD09D00E941B08C0
S113107007FC05D03EF4909581959F4F0895709597
S113108061957F4F0895052E97FB1EF400940E94EE
S11310905A0857FD07D00E94620807FC03D04EF49B
S11310A00C945A0850954095309521953F4F4F4FD9
S11310B05F4F089590958095709561957F4F8F4F00
S11310C09F4F0895A1E21A2EAA1BBB1BFD010DC060
S11310D0AA1FBB1FEE1FFF1FA217B307E407F507E4
S11310E020F0A21BB30BE40BF50B661F771F881FC0
S11310F0991F1A9469F760957095809590959B0156
S10F1100AC01BD01CF010895F894FFCFAD
S113110CC0F9A4B0999282F8809000000101010109
S10B111C01416C61726D2100B8
S9030000FC
